:1000000009C1000037C1000035C1000033C1000044
:1000100031C100002FC100002DC100002BC1000024
:1000200029C1000027C1000025C1000023C1000034
:1000300021C100001FC100001DC100001BC1000044
:1000400019C1000017C1000015C1000013C1000054
:1000500011C100000FC100000DC10000AEC40000BE
:1000600009C10000A3C30000D7C3000003C1000002
:1000700001C10000FFC00000FDC00000FBC0000087
:10008000F9C00000F7C00000F5C00000F3C0000098
:10009000F1C00000EFC00000EDC000000C94DD0ACC
:1000A000E9C00000E7C00000E5C00000E3C00000B8
:1000B000E1C00000DFC00000DDC00000DBC00000C8
:1000C000D9C00000D7C00000D5C00000D3C00000D8
:1000D000D1C00000CFC00000CDC00000CBC00000E8
:1000E000C9C0000007060A06F905FD05030641061A
:1000F0000E06120618061C06200626062A062E06DE
:100100004106340638063C0600000A0B02090C0DB5
:100110000E080703040100000000000000000000BA
:1001200000000000000000000000000000000000CF
:10013000000000001211100000000000000000008C
:1001400000000000000000000000000000000102AC
:1001500010202008081020401020408002010201D9
:100160000804020101020408102040808040201091
:1001700008040201800402018040201008040201EA
:100180000804020101020408102040800102040852
:10019000102040800505050507050808080802022B
:1001A00002020A0A08080404040401010101010111
:1001B00001010303030303030303040707070C0CF4
:1001C0000C0C0C0C0C0C02020202060606060606BB
:1001D00006060B0B0B0B0B0B0B0B00002200250074
:1001E00028002B002E003100340002010000050120
:1001F00008010B0100002100240027002A002D0027
:100200003000330001010000040107010A01F70179
:100210003E04F60911241FBECFEFD1E2DEBFCDBFF1
:1002200000E00CBF1AE1A0E0B2E0E8EAFDE100E086
:100230000BBF02C007900D92AC35B107D9F72CE186
:10024000ACE5BAE101C01D92AB39B207E1F712E0AB
:10025000C4E1D2E000E006C022970109FE010BBF15
:100260000E94460CCE30D10780E00807A9F79BD347
:100270000C94D20EC5CE8F929F92AF92BF92EF9206
:10028000FF920F931F93CF93DF938EE59AE187D56B
:10029000EC018EE59AE183D57C018EE59AE17FD56C
:1002A0008C01209709F462C0EF2809F45FC0009721
:1002B00009F45CC0CE010E945E0E60E170E00E9415
:1002C0000B0CEC01F82EED2EC8010E945E0E8C0185
:1002D000BED34801AA2497FCA094BA2C860E971E80
:1002E000A81EB91E20915C1A30915D1AE0E0F2E080
:1002F00080E090E010E08217930774F4A481B58148
:10030000119639F480829182A282B382F482E582CE
:1003100011E001963696EFCF111116C086E0829F4C
:10032000F001839FF00D1124E050FE4FDF018D920C
:100330009D92AD92BD92C4831196DC932F5F3F4F87
:1003400030935D1A20935C1A20EA3FE040E050E0D1
:100350006C2F84E39BE1DF91CF911F910F91FF9070
:10036000EF90BF90AF909F908F9053C660E07AE17E
:1003700085E39BE1DF91CF911F910F91FF90EF906B
:10038000BF90AF909F908F90FDC2CF9326E040E842
:1003900055E260E070E085E39BE1A6D160E17AE19F
:1003A00085E39BE1EFD284E39BE196D640E050E009
:1003B00068EC74E484E39BE1B5D68CE08093B800EC
:1003C00061E08DE05FD4C0E020E030E040E050E04C
:1003D0006C2F84E39BE11DD6CF5FC031A9F74BE3BF
:1003E00051E065E27AE18EE59AE1CF91E1C460E403
:1003F00084E39BE10BD68EE59AE1C2C44F925F92F3
:100400006F927F92AF92BF92CF92DF92EF92FF9264
:100410000F931F93CF93DF931AD36B017C01C0E03E
:10042000D2E000E010E044244A94542C3201AA2483
:10043000AA94BA2C80915C1A90915D1A081719073A
:10044000F4F46C817D8177FD16C088819981AA8141
:10045000BB81C816D906EA06FB0668F020E030E04A
:1004600040E050E084E39BE1D4D5488259826A821F
:100470007B82BD82AC820F5F1F4F2696DBCF85E368
:100480009BE123D0181619068CF48EE59AE1DF91D2
:10049000CF911F910F91FF90EF90DF90CF90BF9081
:1004A000AF907F906F905F904F90AFC4DF91CF91EE
:1004B0001F910F91FF90EF90DF90CF90BF90AF9082
:1004C0007F906F905F904F900895FC01818D228DF9
:1004D00090E0805C9F4F821B91098F73992708954C
:1004E000FC01918D828D981731F0828DE80FF11DFE
:1004F000858D90E008958FEF9FEF0895FC01918D19
:10050000828D981761F0828DDF01A80FB11D5D9675
:100510008C91928D9F5F9F73928F90E008958FEFE3
:100520009FEF089585E394E0892B39F080E090E017
:10053000892B19F09AD1811125C080E090E0892B98
:1005400041F080E090E0892B21F00E9400008111B1
:100550001CC080E090E0892B41F080E090E0892B86
:1005600021F00E940000811113C080E090E0892BEF
:10057000A1F080E090E0892B81F00E9400008111C1
:100580000AC008950E940000D8CF0E940000E1CF69
:100590000E940000EACF0C9400000895FC01848DB5
:1005A000DF01A80FB11DA35ABF4F2C91848D90E09D
:1005B00001968F739927848FA689B7892C93A08978
:1005C000B1898C9180648C93938D848D981306C02F
:1005D0000288F389E02D80818F7D80830895CF93F9
:1005E000DF93EC01888D8823C1F0EA89FB89808143
:1005F00085FD05C0A889B9898C9186FD0EC00FB60E
:1006000007FCF5CF808185FFF2CFA889B9898C914D
:1006100085FFEDCFCE01C2DFE8CFDF91CF91089506
:10062000CF92DF92FF920F931F93CF93DF931F928E
:10063000CDB7DEB76C0181E0D60158968C93589700
:100640005B969C915B975C968C915C97981307C026
:100650005096ED91FC915197808185FD2DC0F6015A
:10066000038D10E00F5F1F4F0F731127F02EF6015F
:10067000848DF81210C00FB607FCF9CFD601509642
:10068000ED91FC915197808185FFF1CFC60169837F
:1006900085DF6981ECCF838DE80FF11DE35AFF4FB1
:1006A0006083D6015B960C935B975296ED91FC911B
:1006B0005397808180620CC0D6015696ED91FC91D3
:1006C000579760835096ED91FC915197808180649B
:1006D000808381E090E00F90DF91CF911F910F9187
:1006E000FF90DF90CF900895BF92CF92DF92EF926C
:1006F000FF92CF93DF93EC016A017B01B22EE88970
:10070000F98982E08083411581EE58076105710502
:10071000A1F060E079E08DE390E0A70196010E94EE
:100720001E0C2150310941095109569547953795BD
:100730002795211580E1380798F0E889F98910821A
:1007400060E874E88EE190E0A70196010E941E0C1B
:1007500021503109410951095695479537952795FB
:10076000EC85FD853083EE85FF852083188EEC892E
:10077000FD89B082EA89FB89808180618083EA8972
:10078000FB89808188608083EA89FB898081806819
:100790008083EA89FB8980818F7D8083DF91CF917F
:1007A000FF90EF90DF90CF90BF9008951F920F922F
:1007B0000FB60F9211240BB60F922F938F939F9326
:1007C000EF93FF93E091451BF091461B8081E091F0
:1007D0004B1BF0914C1B82FD12C0908180914E1BEF
:1007E0008F5F8F7320914F1B821751F0E0914E1B4A
:1007F000F0E0EB5CF44E958F80934E1B01C080813E
:10080000FF91EF919F918F912F910F900BBE0F90C1
:100810000FBE0F901F9018951F920F920FB60F9258
:1008200011240BB60F922F933F934F935F936F93C7
:100830007F938F939F93AF93BF93EF93FF9385E342
:100840009BE1ACDEFF91EF91BF91AF919F918F91B2
:100850007F916F915F914F913F912F910F900BBEC0
:100860000F900FBE0F901F90189585E39BE12DDE32
:1008700021E0892B09F420E0822F08951092381B83
:100880001092371B88EE93E0A0E0B0E08093391B14
:1008900090933A1BA0933B1BB0933C1B8EE29AE1D2
:1008A0009093361B8093351B85EC90E09093421B10
:1008B0008093411B84EC90E09093441B8093431BF6
:1008C00080EC90E09093461B8093451B81EC90E078
:1008D0009093481B8093471B82EC90E090934A1BB7
:1008E0008093491B86EC90E090934C1B80934B1BAC
:1008F00010924E1B10924F1B1092501B1092511BC6
:100900000895CF92DF92EF92FF920F931F93CF93B0
:10091000DF937C016A01EB0100E010E00C151D057E
:1009200071F06991D701ED91FC910190F081E02D7A
:10093000C7011995892B19F00F5F1F4FEFCFC80121
:10094000DF91CF911F910F91FF90EF90DF90CF90AB
:1009500008956115710581F0DB010D900020E9F724
:10096000AD0141505109461B570BDC01ED91FC9143
:100970000280F381E02D199480E090E008956AE30D
:100980007AE1E7CF0F931F93CF93DF93EC01E1DF81
:100990008C01CE01F4DF800F911FDF91CF911F9169
:1009A0000F9108950895B9D0FDDFEFDCC2E9D2E0E0
:1009B00025DD2097E9F3B6DDFBCF1F920F920FB62E
:1009C0000F9211242F933F938F939F93AF93BF93D5
:1009D0008091D31B9091D41BA091D51BB091D61BB5
:1009E0003091D21B23E0230F2D3720F40196A11D57
:1009F000B11D05C026E8230F0296A11DB11D20934D
:100A0000D21B8093D31B9093D41BA093D51BB09380
:100A1000D61B8091D71B9091D81BA091D91BB09168
:100A2000DA1B0196A11DB11D8093D71B9093D81B93
:100A3000A093D91BB093DA1BBF91AF919F918F9177
:100A40003F912F910F900FBE0F901F9018952FB7C9
:100A5000F8946091D31B7091D41B8091D51B909119
:100A6000D61B2FBF08953FB7F8948091D71B909164
:100A7000D81BA091D91BB091DA1B26B5A89B05C045
:100A80002F3F19F00196A11DB11D3FBF6627782F9A
:100A9000892F9A2F620F711D811D911D42E0660FF3
:100AA000771F881F991F4A95D1F708958F929F92BB
:100AB000AF92BF92CF92DF92EF92FF926B017C01D7
:100AC000D2DF4B015C01C114D104E104F104E1F077
:100AD00047D1C9DF681979098A099B09683E7340C3
:100AE0008105910580F321E0C21AD108E108F108DF
:100AF00088EE880E83E0981EA11CB11CC114D1049D
:100B0000E104F10431F7DFCFFF90EF90DF90CF9059
:100B1000BF90AF909F908F900895789484B5826035
:100B200084BD84B5816084BD85B5826085BD85B591
:100B3000816085BDEEE6F0E0808181608083E1E840
:100B4000F0E0108280818260808380818160808378
:100B5000E0E8F0E0808181608083E1EBF0E080817B
:100B600084608083E0EBF0E0808181608083E1E954
:100B7000F0E0808182608083808181608083E0E911
:100B8000F0E0808181608083E1EAF0E08081826032
:100B90008083808181608083E0EAF0E080818160F1
:100BA0008083E1E2F1E080818260808380818160E6
:100BB0008083E0E2F1E0808181608083EAE7F0E019
:100BC0008081846080838081826080838081816075
:100BD00080838081806880831092C100089590E0B6
:100BE000FC013197E231F10508F04BC0EE58FF4FA0
:100BF00047C6809180008F7703C0809180008F7DF1
:100C000080938000089580918000877FF9CF84B51C
:100C10008F7702C084B58F7D84BD08958091B00028
:100C20008F7703C08091B0008F7D8093B0000895CE
:100C3000809190008F7707C0809190008F7D03C0D6
:100C400080919000877F8093900008958091A0000C
:100C50008F7707C08091A0008F7D03C08091A00096
:100C6000877F8093A0000895809120018F7707C02F
:100C7000809120018F7D03C080912001877F809328
:100C800020010895CF93DF9390E0FC01E25BFE4FDB
:100C90002491FC01EC56FE4F8491882349F190E0A9
:100CA000880F991FFC01EC50FE4FA591B49186521C
:100CB0009E4FFC01C591D4919FB7611108C0F89473
:100CC0008C91209582238C93888182230AC0623084
:100CD00051F4F8948C91322F309583238C93888132
:100CE000822B888304C0F8948C91822B8C939FBFB5
:100CF000DF91CF9108950F931F93CF93DF931F92AE
:100D0000CDB7DEB7282F30E0F901E85FFE4F8491C0
:100D1000F901E25BFE4F1491F901EC56FE4F04918C
:100D20000023C1F0882319F0698359DF6981E02F1E
:100D3000F0E0EE0FFF1FE652FE4FA591B4919FB772
:100D4000F8948C91611103C01095812301C0812B0F
:100D50008C939FBF0F90DF91CF911F910F910895BA
:100D6000089521E030E0FC01E20FF31F10822F5FB5
:100D70003F4F21313105B9F7FC01128A118A0895DC
:100D8000FC01EE52FF4F1182108220E230E0FC01A4
:100D9000348B238B2DE0258B138E128EE2CFAC018A
:100DA000485E5F4FBC016D5E7F4F80E090E0C8C73A
:100DB000FF920F931F93CF93DF93EC018A012A8D4B
:100DC0003B8D2A303105DCF482E1F82EF29EC00121
:100DD000F39E900D11244C9640E150E08C0F9D1F26
:100DE000A0D78A8D9B8DF89EF001F99EF00D1124FD
:100DF000EC0FFD1F15A704A701969B8F8A8FDF912B
:100E0000CF911F910F91FF9008952F923F924F9293
:100E10005F926F927F928F929F92AF92BF92CF928A
:100E2000DF92EF92FF920F931F93CF93DF93CDB793
:100E3000DEB728970FB6F894DEBF0FBECDBF9887F8
:100E40008F837C0122EDE20EF11C5C0184EDA80E83
:100E5000B11CAF81B8855896BA83A983EF81F88514
:100E60007396FC83EB838F81988580539F4F9E837D
:100E70008D834F805884BFEF4B1A5B0A2F803884D4
:100E8000ECE12E0E311CD7018D919C91892B31F014
:100E9000F70180819181019741F098C085E39BE142
:100EA00014DB181619067CF0F3CFD5018D919C91B7
:100EB000DC01ED91FC910480F581E02D1995181667
:100EC00019060CF083C0F70180819181892B39F4D8
:100ED00085E39BE113DBAF81B8858C930DC0F501F1
:100EE00080819181DC01ED91FC910680F781E02DFC
:100EF0001995EF81F8858083AF81B8859C915596CF
:100F00008C91559798133DC052961C921E92519702
:100F100049815A816B817C81C20112D76C01EF81BA
:100F2000F885978B868B009709F450C0828C938C40
:100F3000310100E010E008151905DCF440E150E053
:100F4000B301C601E0D6F2E16F0E711C892B71F47A
:100F500022E1209FF001219FF00D11248F819885BF
:100F6000E80FF91F04A4F5A5E02D07C00F5F1F4F80
:100F7000E2CFAD81BE81ED91FC9119958F8198856D
:100F8000F0DEAF81B8851C91812F992787FD909560
:100F9000B4D6892B09F477CFEF81F885218932897E
:100FA000C9010196928B818BE20FF31F1183EF81B0
:100FB000F885E80FF91F118240970CF45FCFAF81DD
:100FC000B88552961C921E92519753CF28960FB611
:100FD000F894DEBF0FBECDBFDF91CF911F910F916F
:100FE000FF90EF90DF90CF90BF90AF909F908F9049
:100FF0007F906F905F904F903F902F900895DC010D
:10100000ED91FC910190F081E02D1994FC01608339
:101010000895FF920F931F93CF93DF931F921F9218
:10102000CDB7DEB7162FF52E032FFC0160818BEDB7
:101030009BE12A8349835DD1E091DB1BF091DC1BAE
:1010400084E0189FB00111246A5F7F4F0190F08106
:10105000E02D8BED9BE119954981642F7F2D8BED60
:101060009BE1CDDF6F2D70E08BED9BE1C8DF2A8126
:10107000622F702F8BED9BE1C2DF602F70E08BED54
:101080009BE1BDDF8BED9BE10F900F90DF91CF9146
:101090001F910F91FF90A8C11F93CF93DF931F92D1
:1010A000CDB7DEB7162FFC0160818BED9BE1498344
:1010B00020D1612F8BED9BE1D5D04981642F8BED41
:1010C0009BE1D0D08BED9BE10F90DF91CF911F91F1
:1010D0008BC140E060E0E0CFCF93DF93EC018BED7C
:1010E0009BE1FED0CE01DF91CF91F3CF1F93CF9341
:1010F000DF93EC01162F68818BED9BE1FAD0612F15
:101100008BED9BE1AFD08BED9BE16ED141E068812F
:101110008BED9BE167D18BED9BE155D0DF91CF91BA
:101120001F910895CF92DF92EF92FF921F93CF937A
:10113000DF93EC01CB01BA0126E636E646E65FE333
:101140005AD59B01AC0160E27CEB8EEB95E41BD49D
:1011500020E030E040E85FE3B1D320E030E040E061
:101160005FE3ADD3A4D46B017C0160E0CE01BEDFB0
:10117000182F482F4F76406160E0CE018DDFC70108
:10118000B60169D4462F6EEFCE0186DF412F60E0B5
:10119000CE0182DF65E070E080E090E087DC412FE7
:1011A000416A60E0CE01DF91CF911F91FF90EF90F7
:1011B000DF90CF9071CF80910B1C90E020910C1CA0
:1011C000821B9109089520910C1C80910B1C2817FB
:1011D00050F4E22FF0E0E35FF34E808190E02F5F68
:1011E00020930C1C08958FEF9FEF0895E0910C1C45
:1011F00080910B1CE81730F4F0E0E35FF34E808140
:1012000090E008958FEF9FEF08950895CF92DF92B9
:10121000EF92FF920F931F93CF93DF937C01CB014B
:101220008A012091E71B222389F0EB016B01C40E98
:10123000D51ECC15DD0561F06991D701ED91FC91CA
:101240000190F081E02DC7011995F3CF642F8CD167
:10125000C801DF91CF911F910F91FF90EF90DF9028
:10126000CF900895CF93DF931F92CDB7DEB76983F8
:101270002091E71B2223D1F02091E81B203240F07F
:1012800021E030E0FC013383228380E090E014C051
:101290008091E91BE82FF0E0E651F44E99819083AC
:1012A0008F5F8093E91B8093E81B04C061E0CE014F
:1012B00001965AD181E090E00F90DF91CF9108958F
:1012C000FC011382128248EE53E060E070E0448338
:1012D0005583668377838FE49AE1918380830895B1
:1012E00010920C1C10920B1C1092E91B1092E81B20
:1012F00080C081E08093E71B60930A1C1092E91B79
:101300001092E81B08950F93062F21E04091E81BEF
:101310006AEE7BE180910A1CD0D01092E91B1092FA
:10132000E81B1092E71B0F9108958F929F92AF9246
:10133000BF92CF92DF92EF92FF920F931F93CF93C2
:10134000DF93EC01F62ED42E48015901EE2009F16D
:10135000D0DF1E2D143008F013E01150B8F0E881F2
:10136000F98128E0129FB0011124A501940104C065
:1013700056954795379527956A95D2F7CA01B901D1
:101380000190F081E02DCE011995E7CF60E0CE010C
:10139000BADF4D2D413208F040E22C2D6DE07CE1AA
:1013A0008F2D43D010920C1C80930B1CDF91CF919A
:1013B0001F910F91FF90EF90DF90CF90BF90AF9073
:1013C0009F908F900895CF92EF920F931F93C22E0C
:1013D000E12C00E010E09801A8DF1F910F91EF9041
:1013E000CF90089521E0EFCF61E08DCF8BED9BE1B1
:1013F00067CF10929A1C81E08093981C1092971CE2
:1014000061E084E178DC61E085E175DCE9EBF0E046
:1014100080818E7F808380818D7F808388E480932C
:10142000B80085E48093BC000895413208F043C0C1
:1014300090919A1C9111FCCF91E090939A1C20936B
:10144000981C2FEF20932D1C1092721C240F2093B8
:10145000711C9093991C9091991C880F892B8093F3
:10146000991C8091971C813061F41092971C809197
:10147000991C8093BB008091BC0083FDF8CF85EC64
:1014800001C085EE8093BC0080919A1C8130E1F30D
:101490008091721C841710F44091721C23E73CE188
:1014A000FB01D9018A2F821B841718F48D91819337
:1014B000F9CF842F089580E008950F93413208F00A
:1014C0004AC090919A1C9111FCCF92E090939A1C83
:1014D0000093981C9FEF90932D1C1092721C4093C8
:1014E000711CFB0163E77CE1DB019A2F961B9417CB
:1014F00018F491919D93F9CF1092991C9091991C99
:10150000880F892B8093991C8091971C813061F4FE
:101510001092971C8091991C8093BB008091BC0015
:1015200083FDF8CF85EC01C085EE8093BC002223BB
:1015300021F080919A1C8230E1F380912D1C8F3F25
:1015400061F080912D1C803251F080912D1C8033F0
:1015500041F483E007C081E005C080E003C082E081
:1015600001C084E00F910895613298F420919A1C93
:10157000243089F460934F1CFC0181E59CE1DC017F
:101580002A2F281B261718F421912D93F9CF80E0DC
:10159000089581E0089582E0089585ED8093BC0070
:1015A0008091BC0084FDFCCF10929A1C089585ECBC
:1015B0008093BC0010929A1C08951F920F920FB650
:1015C0000F9211240BB60F922F933F934F935F937B
:1015D0006F937F938F939F93AF93BF93EF93FF93FB
:1015E0008091B900887F803609F49DC070F58832FB
:1015F00009F45CC090F4803109F455C038F48823B4
:1016000009F4F3C0883009F44EC0F2C0883109F4FF
:101610004DC0803209F45EC0EBC0803409F469C06B
:1016200050F4803309F456C0883309F0E1C0809348
:101630002D1CBDDFDDC0803509F44FC0883509F4AD
:101640005DC0883409F0D4C0D2C0883909F4C3C061
:10165000A8F4883709F467C038F4883609F463C001
:10166000803709F460C0C4C0883809F4B4C0803938
:1016700009F45FC0803809F0BBC05BC0803B09F44F
:1016800082C038F4803A09F466C0883A09F47BC015
:10169000AFC0803C09F4A3C0883C09F4A0C0883BDB
:1016A00009F486C0A5C08091991C10C09091721C4D
:1016B0008091711C981770F5E091721C81E08E0F7B
:1016C0008093721CF0E0ED58F34E80818093BB0054
:1016D00085EC82C080932D1C8AC0E091721C81E051
:1016E0008E0F8093721C8091BB00F0E0ED58F34E9A
:1016F00080839091721C8091711C6AC0E091721C71
:1017000081E08E0F8093721C8091BB00F0E0ED5859
:10171000F34E80838091981C811169C081E0809391
:10172000971C84EA5DC083E080939A1C10922E1C63
:10173000CFCF80912E1C803208F04DC0E0912E1C3E
:1017400081E08E0F80932E1C8091BB00F0E0E15D64
:10175000F34E8083BDCF2BDF80912E1C803230F47E
:10176000E0912E1CF0E0E15DF34E108260912E1CA2
:1017700070E0E091931CF091941C8FE29CE119952C
:1017800010922E1C35C084E080939A1C1092501C3D
:1017900010924F1CE091951CF091961C1995809128
:1017A0004F1C811105C081E080934F1C1092511C89
:1017B000E091501C81E08E0F8093501CF0E0EF5AB6
:1017C000F34E80818093BB009091501C80914F1C00
:1017D000981708F47DCF85E88093BC0009C085EC9C
:1017E0008093BC0010929A1C03C010922D1CD5DE71
:1017F000FF91EF91BF91AF919F918F917F916F91E9
:101800005F914F913F912F910F900BBE0F900FBEA4
:101810000F901F90189597FB072E16F4009406D092
:1018200077FD08D037D007FC05D03EF49095819520
:101830009F4F0895709561957F4F0895A1E21A2EEC
:10184000AA1BBB1BFD010DC0AA1FBB1FEE1FFF1F64
:10185000A217B307E407F50720F0A21BB30BE40BB4
:10186000F50B661F771F881F991F1A9469F76095FB
:101870007095809590959B01AC01BD01CF010895B5
:10188000EE0FFF1F0590F491E02D19940790F6914B
:10189000E02D1994AA1BBB1B51E107C0AA1FBB1F57
:1018A000A617B70710F0A61BB70B881F991F5A95EC
:1018B000A9F780959095BC01CD0108955058BB279C
:1018C000AA270ED047C138D130F03DD120F031F4F5
:1018D0009F3F11F41EF42DC10EF4E095E7FBFAC012
:1018E000E92F49D180F3BA17620773078407950778
:1018F00018F071F49EF578C10EF4E0950B2EBA2F16
:10190000A02D0B01B90190010C01CA01A001112405
:10191000FF27591B99F0593F50F4503E68F11A16B1
:10192000F040A22F232F342F4427585FF3CF469542
:1019300037952795A795F0405395C9F77EF41F1664
:10194000BA0B620B730B840BBAF09150A1F0FF0F2E
:10195000BB1F661F771F881FC2F70EC0BA0F621F1A
:10196000731F841F48F4879577956795B795F7950A
:101970009E3F08F0B3CF9395880F08F09927EE0F9C
:101980009795879508950CD0E5C0DDD040F0D4D070
:1019900030F021F45F3F19F09DC0511126C1C9C03C
:1019A000EAD098F39923C9F35523B1F3951B550B4E
:1019B000BB27AA2762177307840738F09F5F5F4F22
:1019C000220F331F441FAA1FA9F333D00E2E3AF063
:1019D000E0E830D091505040E695001CCAF729D07D
:1019E000FE2F27D0660F771F881FBB1F26173707CC
:1019F0004807AB07B0E809F0BB0B802DBF01FF27FC
:101A000093585F4F2AF09E3F510568F063C0EDC0C8
:101A10005F3FECF3983EDCF3869577956795B79535
:101A2000F7959F5FC9F7880F911D9695879597F950
:101A30000895E1E0660F771F881FBB1F62177307C9
:101A40008407BA0720F0621B730B840BBA0BEE1FDE
:101A500088F7E095089597D088F09F5790F0B92FB8
:101A60009927B751A0F0D1F0660F771F881F991FF3
:101A70001AF0BA95C9F712C0B13081F0B5D0B1E013
:101A80000895B2C0672F782F8827B85F39F0B93F23
:101A9000CCF3869577956795B395D9F73EF49095F5
:101AA0008095709561957F4F8F4F9F4F089585D09A
:101AB00080F09F3740F491110EF097C060E070E025
:101AC00080E89FEB089526F41B16611D711D811D92
:101AD00007C021C097F99F6780E870E060E0089533
:101AE000882371F4772321F09850872B762F07C035
:101AF000662311F499270DC09051862B70E060E0A9
:101B00002AF09A95660F771F881FDAF7880F969547
:101B1000879597F908959F3F31F0915020F487956C
:101B200077956795B795880F911D9695879597F945
:101B300008959FEF80EC089500240A941616170666
:101B400018060906089500240A94121613061406AE
:101B500005060895092E0394000C11F4882352F011
:101B6000BB0F40F4BF2B11F460FF04C06F5F7F4FC9
:101B70008F4F9F4F089557FD9058440F551F59F0B0
:101B80005F3F71F04795880F97FB991F61F09F3F6A
:101B900079F087950895121613061406551FF2CF93
:101BA0004695F1DF08C0161617061806991FF1CFE3
:101BB00086957105610508940895E5DFA0F0BEE7FC
:101BC000B91788F4BB279F3860F41616B11D672F2C
:101BD000782F8827985FF7CF869577956795B11D01
:101BE00093959639C8F30895E894BB27662777271D
:101BF000CB0197F908950BD0ADCF9EDF28F0A3DF7E
:101C000018F0952309F066CF94CF1124EECFB3DFFF
:101C1000A0F3959FD1F3950F50E0551F629FF001FF
:101C2000729FBB27F00DB11D639FAA27F00DB11D58
:101C3000AA1F649F6627B00DA11D661F829F2227E1
:101C4000B00DA11D621F739FB00DA11D621F839F68
:101C5000A00D611D221F749F3327A00D611D231F3E
:101C6000849F600D211D822F762F6A2F11249F578C
:101C700050408AF0E1F088234AF0EE0FFF1FBB1FAF
:101C8000661F771F881F91505040A9F79E3F51054E
:101C900070F020CFAACF5F3FECF3983EDCF386953F
:101CA00077956795B795F795E7959F5FC1F7FE2BF9
:101CB000880F911D9695879597F90895FC018827BF
:101CC0009927E89421912032E9F3293010F02E3041
:101CD000C8F32B3239F02D3231F4689403C057D059
:101CE000820F911D219120532A30C8F31EF4909544
:101CF00081959F4F0895803209F0911150C0805214
:101D00008F55E0F70895FB01DC014150504030F061
:101D10008D910190801919F40020B9F7881B990B57
:101D20000895FB01DC014150504048F001900D92B4
:101D30000020C9F701C01D9241505040E0F70895BE
:101D4000FA01A191B081009719F41097E1F0CD014B
:101D5000DC01CD010D90002011F4C00113C0FB0186
:101D60002191222319F02015D9F7F3CFFB012191FE
:101D7000201519F41E92119606C02223C1F70D906A
:101D80000020A1F7D001FA01A193B08308957AE071
:101D9000979F902D879F802D910D1124089599274D
:081DA00088270895F894FFCF95
:101DA800FFFFFFFFFFFF0000000000000000000031
:101DB800000000000000000000000000000000001B
:101DC800000000000000000000000000000000000B
:101DD80000000000000000000000000000000000FB
:101DE80000000000000000000000000000000000EB
:1035A8006E6F7468696E6720746F206563686F005A
:1035B8003136206368616E6E656C2050574D2074FB
:1035C800657374210042555A5A0000000000100328
:1035D800810465027E027002EF020D0A006E616EC0
:1035E80000696E66006F7666002E000000000032EB
:0C35F800090609DB08E308F608050900D5
:00000001FF
